{
  "contractName": "BlockLearning",
  "abi": [
    {
      "inputs": [],
      "payable": false,
      "stateMutability": "nonpayable",
      "type": "constructor"
    },
    {
      "anonymous": false,
      "inputs": [
        {
          "indexed": true,
          "internalType": "address",
          "name": "client",
          "type": "address"
        },
        {
          "indexed": false,
          "internalType": "string",
          "name": "modelHash",
          "type": "string"
        },
        {
          "indexed": false,
          "internalType": "uint256",
          "name": "accuracy",
          "type": "uint256"
        },
        {
          "indexed": false,
          "internalType": "uint256",
          "name": "timestamp",
          "type": "uint256"
        },
        {
          "indexed": false,
          "internalType": "uint256",
          "name": "trainingSamples",
          "type": "uint256"
        }
      ],
      "name": "ModelUpdated",
      "type": "event"
    },
    {
      "constant": true,
      "inputs": [
        {
          "internalType": "address",
          "name": "",
          "type": "address"
        },
        {
          "internalType": "uint256",
          "name": "",
          "type": "uint256"
        }
      ],
      "name": "modelUpdates",
      "outputs": [
        {
          "internalType": "string",
          "name": "modelHash",
          "type": "string"
        },
        {
          "internalType": "uint256",
          "name": "accuracy",
          "type": "uint256"
        },
        {
          "internalType": "uint256",
          "name": "timestamp",
          "type": "uint256"
        },
        {
          "internalType": "uint256",
          "name": "trainingSamples",
          "type": "uint256"
        }
      ],
      "payable": false,
      "stateMutability": "view",
      "type": "function"
    },
    {
      "constant": true,
      "inputs": [],
      "name": "owner",
      "outputs": [
        {
          "internalType": "address",
          "name": "",
          "type": "address"
        }
      ],
      "payable": false,
      "stateMutability": "view",
      "type": "function"
    },
    {
      "constant": true,
      "inputs": [
        {
          "internalType": "address",
          "name": "",
          "type": "address"
        }
      ],
      "name": "registeredClients",
      "outputs": [
        {
          "internalType": "bool",
          "name": "",
          "type": "bool"
        }
      ],
      "payable": false,
      "stateMutability": "view",
      "type": "function"
    },
    {
      "constant": false,
      "inputs": [
        {
          "internalType": "address",
          "name": "_client",
          "type": "address"
        }
      ],
      "name": "registerClient",
      "outputs": [],
      "payable": false,
      "stateMutability": "nonpayable",
      "type": "function"
    },
    {
      "constant": false,
      "inputs": [
        {
          "internalType": "string",
          "name": "_modelHash",
          "type": "string"
        },
        {
          "internalType": "uint256",
          "name": "_accuracy",
          "type": "uint256"
        },
        {
          "internalType": "uint256",
          "name": "_trainingSamples",
          "type": "uint256"
        }
      ],
      "name": "updateModel",
      "outputs": [],
      "payable": false,
      "stateMutability": "nonpayable",
      "type": "function"
    },
    {
      "constant": true,
      "inputs": [
        {
          "internalType": "address",
          "name": "_client",
          "type": "address"
        }
      ],
      "name": "getModelUpdates",
      "outputs": [
        {
          "internalType": "string[]",
          "name": "",
          "type": "string[]"
        },
        {
          "internalType": "uint256[]",
          "name": "",
          "type": "uint256[]"
        },
        {
          "internalType": "uint256[]",
          "name": "",
          "type": "uint256[]"
        },
        {
          "internalType": "uint256[]",
          "name": "",
          "type": "uint256[]"
        }
      ],
      "payable": false,
      "stateMutability": "view",
      "type": "function"
    }
  ],
  "bytecode": "0x608060405234801561001057600080fd5b50600080546001600160a01b03191633179055610b8c806100326000396000f3fe608060405234801561001057600080fd5b50600436106100625760003560e01c80630e18c2901461006757806342a67b7f1461009057806361c0d76d146100a55780638057c0b2146100c85780638da5cb5b146100eb578063f3ccd38914610100575b600080fd5b61007a610075366004610705565b610113565b60405161008791906109f4565b60405180910390f35b6100a361009e366004610705565b610128565b005b6100b86100b3366004610705565b61017f565b604051610087949392919061099d565b6100db6100d636600461072b565b6103f7565b6040516100879493929190610a02565b6100f36104c5565b604051610087919061098f565b6100a361010e366004610765565b6104d4565b60026020526000908152604090205460ff1681565b6000546001600160a01b0316331461015b5760405162461bcd60e51b815260040161015290610a55565b60405180910390fd5b6001600160a01b03166000908152600260205260409020805460ff19166001179055565b6001600160a01b038116600090815260016020908152604091829020548251818152818302810190920190925260609182918291829182908280156101d857816020015b60608152602001906001900390816101c35790505b509050606082604051908082528060200260200182016040528015610207578160200160208202803883390190505b509050606083604051908082528060200260200182016040528015610236578160200160208202803883390190505b509050606084604051908082528060200260200182016040528015610265578160200160208202803883390190505b50905060005b858110156103e65761027b6105d2565b6001600160a01b038c16600090815260016020526040902080548390811061029f57fe5b600091825260209182902060408051600493909302909101805460026001821615610100026000190190911604601f8101859004909402830160a090810190925260808301848152929390928492909184918401828280156103425780601f1061031757610100808354040283529160200191610342565b820191906000526020600020905b81548152906001019060200180831161032557829003601f168201915b5050505050815260200160018201548152602001600282015481526020016003820154815250509050806000015186838151811061037c57fe5b6020026020010181905250806020015185838151811061039857fe5b60200260200101818152505080604001518483815181106103b557fe5b60200260200101818152505080606001518383815181106103d257fe5b60209081029190910101525060010161026b565b509299919850965090945092505050565b6001602052816000526040600020818154811061041057fe5b60009182526020918290206004919091020180546040805160026001841615610100026000190190931692909204601f8101859004850283018501909152808252919450925083918301828280156104a95780601f1061047e576101008083540402835291602001916104a9565b820191906000526020600020905b81548152906001019060200180831161048c57829003601f168201915b5050505050908060010154908060020154908060030154905084565b6000546001600160a01b031681565b3360009081526002602052604090205460ff166105035760405162461bcd60e51b815260040161015290610a45565b336000908152600160208181526040808420815160808101835288815280840188905242928101839052606081018790528154948501808355918652948390208551805193969295929460049093029091019261056392849201906105fa565b50602082015181600101556040820151816002015560608201518160030155505050336001600160a01b03167f71b301c3e5c8a96dbfee46b1ac73aabaa20a695ad7414e3859d89360502fda06858584866040516105c49493929190610a02565b60405180910390a250505050565b6040518060800160405280606081526020016000815260200160008152602001600081525090565b828054600181600116156101000203166002900490600052602060002090601f016020900481019282601f1061063b57805160ff1916838001178555610668565b82800160010185558215610668579182015b8281111561066857825182559160200191906001019061064d565b50610674929150610678565b5090565b61069291905b80821115610674576000815560010161067e565b90565b80356106a081610b29565b92915050565b600082601f8301126106b757600080fd5b81356106ca6106c582610a8c565b610a65565b915080825260208301602083018583830111156106e657600080fd5b6106f1838284610ae3565b50505092915050565b80356106a081610b40565b60006020828403121561071757600080fd5b60006107238484610695565b949350505050565b6000806040838503121561073e57600080fd5b600061074a8585610695565b925050602061075b858286016106fa565b9150509250929050565b60008060006060848603121561077a57600080fd5b833567ffffffffffffffff81111561079157600080fd5b61079d868287016106a6565b93505060206107ae868287016106fa565b92505060406107bf868287016106fa565b9150509250925092565b60006107d583836108cf565b9392505050565b60006107e88383610986565b505060200190565b6107f981610ac7565b82525050565b600061080a82610aba565b6108148185610abe565b93508360208202850161082685610ab4565b8060005b85811015610860578484038952815161084385826107c9565b945061084e83610ab4565b60209a909a019992505060010161082a565b5091979650505050505050565b600061087882610aba565b6108828185610abe565b935061088d83610ab4565b8060005b838110156108bb5781516108a588826107dc565b97506108b083610ab4565b925050600101610891565b509495945050505050565b6107f981610ad2565b60006108da82610aba565b6108e48185610abe565b93506108f4818560208601610aef565b6108fd81610b1f565b9093019392505050565b6000610914601983610abe565b7f436c69656e74206973206e6f7420726567697374657265642e00000000000000815260200192915050565b600061094d602483610abe565b7f4f6e6c7920746865206f776e65722063616e20726567697374657220636c6965815263373a399760e11b602082015260400192915050565b6107f981610692565b602081016106a082846107f0565b608080825281016109ae81876107ff565b905081810360208301526109c2818661086d565b905081810360408301526109d6818561086d565b905081810360608301526109ea818461086d565b9695505050505050565b602081016106a082846108c6565b60808082528101610a1381876108cf565b9050610a226020830186610986565b610a2f6040830185610986565b610a3c6060830184610986565b95945050505050565b602080825281016106a081610907565b602080825281016106a081610940565b60405181810167ffffffffffffffff81118282101715610a8457600080fd5b604052919050565b600067ffffffffffffffff821115610aa357600080fd5b506020601f91909101601f19160190565b60200190565b5190565b90815260200190565b60006106a082610ad7565b151590565b6001600160a01b031690565b82818337506000910152565b60005b83811015610b0a578181015183820152602001610af2565b83811115610b19576000848401525b50505050565b601f01601f191690565b610b3281610ac7565b8114610b3d57600080fd5b50565b610b328161069256fea365627a7a72315820e393e910de63f8c4cfe3ef69aa4da4f7c209f0abfbfe413c1f0a71bfa2794b9d6c6578706572696d656e74616cf564736f6c63430005110040",
  "source": "pragma solidity ^0.5.0;\r\npragma experimental ABIEncoderV2; // Enable ABI Encoder V2 for handling complex data types like arrays\r\n\r\ncontract BlockLearning {\r\n    address public owner;\r\n\r\n    // Struct to store model updates and performance metrics\r\n    struct Model {\r\n        string modelHash;      // Hash of the model\r\n        uint256 accuracy;      // Accuracy of the model\r\n        uint256 timestamp;     // Timestamp of the update\r\n        uint256 trainingSamples;  // Number of samples used in training\r\n    }\r\n\r\n    // Mapping to store model updates per client\r\n    mapping(address => Model[]) public modelUpdates;\r\n    mapping(address => bool) public registeredClients;\r\n\r\n    // Event to log new model update\r\n    event ModelUpdated(address indexed client, string modelHash, uint256 accuracy, uint256 timestamp, uint256 trainingSamples);\r\n\r\n    constructor() public {\r\n        owner = msg.sender;\r\n    }\r\n\r\n    // Register a new client\r\n    function registerClient(address _client) public {\r\n        require(msg.sender == owner, \"Only the owner can register clients.\");\r\n        registeredClients[_client] = true;\r\n    }\r\n\r\n    // Function to update the model\r\n    function updateModel(string memory _modelHash, uint256 _accuracy, uint256 _trainingSamples) public {\r\n        require(registeredClients[msg.sender], \"Client is not registered.\");\r\n        uint256 timestamp = now;  // Current timestamp\r\n        modelUpdates[msg.sender].push(Model(_modelHash, _accuracy, timestamp, _trainingSamples));\r\n\r\n        // Emit event for logging the update\r\n        emit ModelUpdated(msg.sender, _modelHash, _accuracy, timestamp, _trainingSamples);\r\n    }\r\n\r\n    // Function to get model updates for a specific client\r\n    function getModelUpdates(address _client) public view returns (string[] memory, uint256[] memory, uint256[] memory, uint256[] memory) {\r\n        uint256 updateCount = modelUpdates[_client].length;\r\n        string[] memory hashes = new string[](updateCount);\r\n        uint256[] memory accuracies = new uint256[](updateCount);\r\n        uint256[] memory timestamps = new uint256[](updateCount);\r\n        uint256[] memory trainingSamples = new uint256[](updateCount);\r\n\r\n        for (uint256 i = 0; i < updateCount; i++) {\r\n            Model memory model = modelUpdates[_client][i];\r\n            hashes[i] = model.modelHash;\r\n            accuracies[i] = model.accuracy;\r\n            timestamps[i] = model.timestamp;\r\n            trainingSamples[i] = model.trainingSamples;\r\n        }\r\n\r\n        return (hashes, accuracies, timestamps, trainingSamples);\r\n    }\r\n}\r\n",
  "sourcePath": "C:\\Users\\zboon\\Desktop\\BC-FLCNN_for_AIS\\FL\\Truffle\\contracts\\ModelUpdateLogger.sol",
  "compiler": {
    "name": "solc",
    "version": "0.5.17+commit.d19bba13.Emscripten.clang"
  },
  "schemaVersion": "3.4.16",
  "updatedAt": "2025-05-13T14:26:26.785Z",
  "devdoc": {
    "methods": {}
  },
  "userdoc": {
    "methods": {}
  }
}