{
  "contractName": "ClientRegistration",
  "abi": [
    {
      "constant": true,
      "inputs": [],
      "name": "owner",
      "outputs": [
        {
          "internalType": "address",
          "name": "",
          "type": "address"
        }
      ],
      "payable": false,
      "stateMutability": "view",
      "type": "function"
    },
    {
      "constant": true,
      "inputs": [
        {
          "internalType": "address",
          "name": "",
          "type": "address"
        }
      ],
      "name": "registeredClients",
      "outputs": [
        {
          "internalType": "bool",
          "name": "",
          "type": "bool"
        }
      ],
      "payable": false,
      "stateMutability": "view",
      "type": "function"
    },
    {
      "constant": false,
      "inputs": [
        {
          "internalType": "address",
          "name": "_client",
          "type": "address"
        }
      ],
      "name": "registerClient",
      "outputs": [],
      "payable": false,
      "stateMutability": "nonpayable",
      "type": "function"
    },
    {
      "constant": true,
      "inputs": [
        {
          "internalType": "address",
          "name": "_client",
          "type": "address"
        }
      ],
      "name": "isClientRegistered",
      "outputs": [
        {
          "internalType": "bool",
          "name": "",
          "type": "bool"
        }
      ],
      "payable": false,
      "stateMutability": "view",
      "type": "function"
    }
  ],
  "bytecode": "0x6080604052600080546001600160a01b031916331790556101fa806100256000396000f3fe608060405234801561001057600080fd5b506004361061004c5760003560e01c80630e18c2901461005157806342a67b7f1461008b57806364f2353f146100b35780638da5cb5b146100d9575b600080fd5b6100776004803603602081101561006757600080fd5b50356001600160a01b03166100fd565b604080519115158252519081900360200190f35b6100b1600480360360208110156100a157600080fd5b50356001600160a01b0316610112565b005b610077600480360360208110156100c957600080fd5b50356001600160a01b0316610198565b6100e16101b6565b604080516001600160a01b039092168252519081900360200190f35b60016020526000908152604090205460ff1681565b6000546001600160a01b03163314610171576040805162461bcd60e51b815260206004820152601760248201527f4e6f742074686520636f6e7472616374206f776e65722e000000000000000000604482015290519081900360640190fd5b6001600160a01b03166000908152600160208190526040909120805460ff19169091179055565b6001600160a01b031660009081526001602052604090205460ff1690565b6000546001600160a01b03168156fea265627a7a723158200b66efb519eb8c11482e586871cd41623f95f7271270e0c68a4fae0033d2b3eb64736f6c63430005110032",
  "source": "pragma solidity ^0.5.0;\r\n\r\nimport \"./Ownable.sol\";\r\n\r\ncontract ClientRegistration is Ownable {\r\n    mapping(address => bool) public registeredClients;\r\n\r\n    function registerClient(address _client) public onlyOwner {\r\n        registeredClients[_client] = true;\r\n    }\r\n\r\n    function isClientRegistered(address _client) public view returns (bool) {\r\n        return registeredClients[_client];\r\n    }\r\n}\r\n",
  "sourcePath": "C:\\Users\\zboon\\Desktop\\BC-FLCNN_for_AIS\\FL\\Truffle\\contracts\\ClientRegistration.sol",
  "compiler": {
    "name": "solc",
    "version": "0.5.17+commit.d19bba13.Emscripten.clang"
  },
  "schemaVersion": "3.4.16",
  "updatedAt": "2025-05-13T14:26:26.782Z",
  "devdoc": {
    "methods": {}
  },
  "userdoc": {
    "methods": {}
  }
}