{
  "contractName": "ModelUpdateLogger",
  "abi": [
    {
      "anonymous": false,
      "inputs": [
        {
          "indexed": true,
          "internalType": "address",
          "name": "client",
          "type": "address"
        },
        {
          "indexed": false,
          "internalType": "string",
          "name": "modelHash",
          "type": "string"
        },
        {
          "indexed": false,
          "internalType": "uint256",
          "name": "accuracy",
          "type": "uint256"
        },
        {
          "indexed": false,
          "internalType": "uint256",
          "name": "timestamp",
          "type": "uint256"
        }
      ],
      "name": "ModelUpdated",
      "type": "event"
    },
    {
      "constant": true,
      "inputs": [
        {
          "internalType": "address",
          "name": "",
          "type": "address"
        },
        {
          "internalType": "uint256",
          "name": "",
          "type": "uint256"
        }
      ],
      "name": "modelUpdates",
      "outputs": [
        {
          "internalType": "string",
          "name": "modelHash",
          "type": "string"
        },
        {
          "internalType": "uint256",
          "name": "accuracy",
          "type": "uint256"
        },
        {
          "internalType": "uint256",
          "name": "timestamp",
          "type": "uint256"
        }
      ],
      "payable": false,
      "stateMutability": "view",
      "type": "function"
    },
    {
      "constant": true,
      "inputs": [],
      "name": "owner",
      "outputs": [
        {
          "internalType": "address",
          "name": "",
          "type": "address"
        }
      ],
      "payable": false,
      "stateMutability": "view",
      "type": "function"
    },
    {
      "constant": false,
      "inputs": [
        {
          "internalType": "string",
          "name": "_modelHash",
          "type": "string"
        },
        {
          "internalType": "uint256",
          "name": "_accuracy",
          "type": "uint256"
        }
      ],
      "name": "logModelUpdate",
      "outputs": [],
      "payable": false,
      "stateMutability": "nonpayable",
      "type": "function"
    },
    {
      "constant": true,
      "inputs": [
        {
          "internalType": "address",
          "name": "_client",
          "type": "address"
        }
      ],
      "name": "getModelUpdates",
      "outputs": [
        {
          "internalType": "string[]",
          "name": "",
          "type": "string[]"
        },
        {
          "internalType": "uint256[]",
          "name": "",
          "type": "uint256[]"
        },
        {
          "internalType": "uint256[]",
          "name": "",
          "type": "uint256[]"
        }
      ],
      "payable": false,
      "stateMutability": "view",
      "type": "function"
    }
  ],
  "bytecode": "0x6080604052600080546001600160a01b03191633179055610909806100256000396000f3fe608060405234801561001057600080fd5b506004361061004c5760003560e01c806361c0d76d146100515780638057c0b21461007c5780638da5cb5b1461009e5780639a0e3daa146100b3575b600080fd5b61006461005f36600461059c565b6100c8565b6040516100739392919061077e565b60405180910390f35b61008f61008a3660046105c2565b6102e7565b604051610073939291906107c0565b6100a66103af565b6040516100739190610770565b6100c66100c13660046105fc565b6103be565b005b6001600160a01b03811660009081526001602090815260409182902054825181815281830281019092019092526060918291829190829082801561012057816020015b606081526020019060019003908161010b5790505b50905060608260405190808252806020026020018201604052801561014f578160200160208202803883390190505b50905060608360405190808252806020026020018201604052801561017e578160200160208202803883390190505b50905060005b848110156102d857610194610470565b6001600160a01b038a1660009081526001602052604090208054839081106101b857fe5b600091825260209182902060408051600393909302909101805460026001821615610100026000190190911604601f810185900490940283016080908101909252606083018481529293909284929091849184018282801561025b5780601f106102305761010080835404028352916020019161025b565b820191906000526020600020905b81548152906001019060200180831161023e57829003601f168201915b50505050508152602001600182015481526020016002820154815250509050806000015185838151811061028b57fe5b602002602001018190525080602001518483815181106102a757fe5b60200260200101818152505080604001518383815181106102c457fe5b602090810291909101015250600101610184565b50919790965090945092505050565b6001602052816000526040600020818154811061030057fe5b60009182526020918290206003919091020180546040805160026001841615610100026000190190931692909204601f8101859004850283018501909152808252919450925083918301828280156103995780601f1061036e57610100808354040283529160200191610399565b820191906000526020600020905b81548152906001019060200180831161037c57829003601f168201915b5050505050908060010154908060020154905083565b6000546001600160a01b031681565b336000908152600160208181526040808420815160608101835287815280840187905242928101839052815494850180835591865294839020855180519396929592946003909302909101926104179284920190610491565b5060208201516001820155604091820151600290910155513391507f9d30c22f45ca774dfbf43e0f4e4ef4ee81f9e7ba89e6416834657160ea1e1f6a90610463908690869086906107c0565b60405180910390a2505050565b60405180606001604052806060815260200160008152602001600081525090565b828054600181600116156101000203166002900490600052602060002090601f016020900481019282601f106104d257805160ff19168380011785556104ff565b828001600101855582156104ff579182015b828111156104ff5782518255916020019190600101906104e4565b5061050b92915061050f565b5090565b61052991905b8082111561050b5760008155600101610515565b90565b8035610537816108a6565b92915050565b600082601f83011261054e57600080fd5b813561056161055c82610814565b6107ed565b9150808252602083016020830185838301111561057d57600080fd5b610588838284610860565b50505092915050565b8035610537816108bd565b6000602082840312156105ae57600080fd5b60006105ba848461052c565b949350505050565b600080604083850312156105d557600080fd5b60006105e1858561052c565b92505060206105f285828601610591565b9150509250929050565b6000806040838503121561060f57600080fd5b823567ffffffffffffffff81111561062657600080fd5b6105e18582860161053d565b600061063e838361072f565b9392505050565b60006106518383610767565b505060200190565b6106628161084f565b82525050565b600061067382610842565b61067d8185610846565b93508360208202850161068f8561083c565b8060005b858110156106c957848403895281516106ac8582610632565b94506106b78361083c565b60209a909a0199925050600101610693565b5091979650505050505050565b60006106e182610842565b6106eb8185610846565b93506106f68361083c565b8060005b8381101561072457815161070e8882610645565b97506107198361083c565b9250506001016106fa565b509495945050505050565b600061073a82610842565b6107448185610846565b935061075481856020860161086c565b61075d8161089c565b9093019392505050565b61066281610529565b602081016105378284610659565b6060808252810161078f8186610668565b905081810360208301526107a381856106d6565b905081810360408301526107b781846106d6565b95945050505050565b606080825281016107d1818661072f565b90506107e06020830185610767565b6105ba6040830184610767565b60405181810167ffffffffffffffff8111828210171561080c57600080fd5b604052919050565b600067ffffffffffffffff82111561082b57600080fd5b506020601f91909101601f19160190565b60200190565b5190565b90815260200190565b60006001600160a01b038216610537565b82818337506000910152565b60005b8381101561088757818101518382015260200161086f565b83811115610896576000848401525b50505050565b601f01601f191690565b6108af8161084f565b81146108ba57600080fd5b50565b6108af8161052956fea365627a7a72315820d1d5ba978431cd4dfb0cc97b6bec7b988c66b7da1adc1185c6d82d37dac2adeb6c6578706572696d656e74616cf564736f6c63430005110040",
  "source": "pragma solidity ^0.5.0;\r\npragma experimental ABIEncoderV2; // Enable ABI Encoder V2 for handling complex data types like arrays\r\n\r\n\r\nimport \"./Ownable.sol\";\r\n\r\ncontract ModelUpdateLogger is Ownable {\r\n    struct Model {\r\n        string modelHash;\r\n        uint256 accuracy;\r\n        uint256 timestamp;\r\n    }\r\n\r\n    mapping(address => Model[]) public modelUpdates;\r\n\r\n    event ModelUpdated(address indexed client, string modelHash, uint256 accuracy, uint256 timestamp);\r\n\r\n    function logModelUpdate(string memory _modelHash, uint256 _accuracy) public {\r\n        uint256 timestamp = now;\r\n        modelUpdates[msg.sender].push(Model(_modelHash, _accuracy, timestamp));\r\n\r\n        emit ModelUpdated(msg.sender, _modelHash, _accuracy, timestamp);\r\n    }\r\n\r\n    function getModelUpdates(address _client) public view returns (string[] memory, uint256[] memory, uint256[] memory) {\r\n        uint256 updateCount = modelUpdates[_client].length;\r\n        string[] memory hashes = new string[](updateCount);\r\n        uint256[] memory accuracies = new uint256[](updateCount);\r\n        uint256[] memory timestamps = new uint256[](updateCount);\r\n\r\n        for (uint256 i = 0; i < updateCount; i++) {\r\n            Model memory model = modelUpdates[_client][i];\r\n            hashes[i] = model.modelHash;\r\n            accuracies[i] = model.accuracy;\r\n            timestamps[i] = model.timestamp;\r\n        }\r\n\r\n        return (hashes, accuracies, timestamps);\r\n    }\r\n}\r\n",
  "sourcePath": "C:\\Users\\zboon\\Desktop\\BC-FLCNN_for_AIS\\FL\\Truffle\\contracts\\ModelUpdateLogger.sol",
  "compiler": {
    "name": "solc",
    "version": "0.5.17+commit.d19bba13.Emscripten.clang"
  },
  "schemaVersion": "3.4.16",
  "updatedAt": "2025-05-13T14:03:28.370Z",
  "devdoc": {
    "methods": {}
  },
  "userdoc": {
    "methods": {}
  }
}